{
  "contractName": "PlotBase",
  "abi": [
    {
      "constant": false,
      "inputs": [
        {
          "name": "_addr",
          "type": "address"
        }
      ],
      "name": "setOwner",
      "outputs": [],
      "payable": false,
      "stateMutability": "nonpayable",
      "type": "function"
    },
    {
      "constant": true,
      "inputs": [],
      "name": "userTotal",
      "outputs": [
        {
          "name": "",
          "type": "uint64"
        }
      ],
      "payable": false,
      "stateMutability": "view",
      "type": "function"
    },
    {
      "constant": false,
      "inputs": [
        {
          "name": "_area",
          "type": "uint256"
        },
        {
          "name": "_pos",
          "type": "string"
        }
      ],
      "name": "createPlot",
      "outputs": [
        {
          "name": "",
          "type": "uint256"
        }
      ],
      "payable": false,
      "stateMutability": "nonpayable",
      "type": "function"
    },
    {
      "constant": false,
      "inputs": [
        {
          "name": "_id",
          "type": "uint256"
        }
      ],
      "name": "approvalPlot",
      "outputs": [
        {
          "name": "",
          "type": "uint256"
        }
      ],
      "payable": false,
      "stateMutability": "nonpayable",
      "type": "function"
    },
    {
      "constant": false,
      "inputs": [
        {
          "name": "_id",
          "type": "uint256"
        },
        {
          "name": "_decreaseArea",
          "type": "uint256"
        }
      ],
      "name": "splitPlot",
      "outputs": [],
      "payable": false,
      "stateMutability": "nonpayable",
      "type": "function"
    }
  ],
  "bytecode": "0x6080604052336000806101000a81548173ffffffffffffffffffffffffffffffffffffffff021916908373ffffffffffffffffffffffffffffffffffffffff160217905550610d70806100536000396000f30060806040526004361061006d576000357c0100000000000000000000000000000000000000000000000000000000900463ffffffff16806313af4035146100725780632f82b20c146100b55780634a404f96146100f6578063b9cf3f701461017d578063e936848f146101bc575b600080fd5b34801561007e57600080fd5b506100b3600480360381019080803573ffffffffffffffffffffffffffffffffffffffff1690602001909291905050506101f3565b005b3480156100c157600080fd5b506100e060048036038101908080359060200190929190505050610291565b6040518082815260200191505060405180910390f35b34801561010257600080fd5b5061016760048036038101908080359060200190929190803590602001908201803590602001908080601f0160208091040260200160405190810160405280939291908181526020018383808284378201915050505050509192919290505050610580565b6040518082815260200191505060405180910390f35b34801561018957600080fd5b5061019261084b565b604051808267ffffffffffffffff1667ffffffffffffffff16815260200191505060405180910390f35b3480156101c857600080fd5b506101f16004803603810190808035906020019092919080359060200190929190505050610865565b005b6000809054906101000a900473ffffffffffffffffffffffffffffffffffffffff1673ffffffffffffffffffffffffffffffffffffffff163373ffffffffffffffffffffffffffffffffffffffff1614151561024e57600080fd5b806000806101000a81548173ffffffffffffffffffffffffffffffffffffffff021916908373ffffffffffffffffffffffffffffffffffffffff16021790555050565b6000806000809054906101000a900473ffffffffffffffffffffffffffffffffffffffff1673ffffffffffffffffffffffffffffffffffffffff163373ffffffffffffffffffffffffffffffffffffffff161415156102ef57600080fd5b600060078481548110151561030057fe5b906000526020600020906005020160000160009054906101000a900467ffffffffffffffff1667ffffffffffffffff161415151561033d57600080fd5b60078381548110151561034c57fe5b9060005260206000209060050201905060018160020160006101000a81548160ff0219169083600281111561037d57fe5b0217905550600681908060018154018082558091505090600182039060005260206000209060050201600090919290919091506000820160009054906101000a900467ffffffffffffffff168160000160006101000a81548167ffffffffffffffff021916908367ffffffffffffffff1602179055506000820160089054906101000a900473ffffffffffffffffffffffffffffffffffffffff168160000160086101000a81548173ffffffffffffffffffffffffffffffffffffffff021916908373ffffffffffffffffffffffffffffffffffffffff1602179055506001820181600101908054610470929190610a2e565b506002820160009054906101000a900460ff168160020160006101000a81548160ff021916908360028111156104a257fe5b021790555060038201548160030155600482018160040190805460018160011615610100020316600290046104d8929190610a80565b505050506007838154811015156104eb57fe5b9060005260206000209060050201600080820160006101000a81549067ffffffffffffffff02191690556000820160086101000a81549073ffffffffffffffffffffffffffffffffffffffff021916905560018201600061054c9190610b07565b6002820160006101000a81549060ff021916905560038201600090556004820160006105789190610b28565b505050919050565b60008061058b610b70565b600560009054906101000a900467ffffffffffffffff16915060c0604051908101604052808367ffffffffffffffff1681526020013373ffffffffffffffffffffffffffffffffffffffff168152602001600060405190808252806020026020018201604052801561060c5781602001602082028038833980820191505090505b5081526020016001600281111561061f57fe5b81526020018681526020018581525090506005600081819054906101000a900467ffffffffffffffff168092919060010191906101000a81548167ffffffffffffffff021916908367ffffffffffffffff160217905550506006819080600181540180825580915050906001820390600052602060002090600502016000909192909190915060008201518160000160006101000a81548167ffffffffffffffff021916908367ffffffffffffffff16021790555060208201518160000160086101000a81548173ffffffffffffffffffffffffffffffffffffffff021916908373ffffffffffffffffffffffffffffffffffffffff1602179055506040820151816001019080519060200190610737929190610bd2565b5060608201518160020160006101000a81548160ff0219169083600281111561075c57fe5b02179055506080820151816003015560a0820151816004019080519060200190610787929190610c5c565b50505050600460003373ffffffffffffffffffffffffffffffffffffffff1673ffffffffffffffffffffffffffffffffffffffff1681526020019081526020016000206000815480929190600101919050555033600360008467ffffffffffffffff16815260200190815260200160002060006101000a81548173ffffffffffffffffffffffffffffffffffffffff021916908373ffffffffffffffffffffffffffffffffffffffff1602179055508167ffffffffffffffff169250505092915050565b600260009054906101000a900467ffffffffffffffff1681565b6000826003600082815260200190815260200160002060009054906101000a900473ffffffffffffffffffffffffffffffffffffffff1673ffffffffffffffffffffffffffffffffffffffff163373ffffffffffffffffffffffffffffffffffffffff161415156108d557600080fd5b6006848154811015156108e457fe5b9060005260206000209060050201915081600301548310151561096f576040517f08c379a000000000000000000000000000000000000000000000000000000000815260040180806020018281038252601a8152602001807f43616e27742073706c697420776974682074686973206172656100000000000081525060200191505060405180910390fd5b828260030160008282540392505081905550610a2783836004018054600181600116156101000203166002900480601f016020809104026020016040519081016040528092919081815260200182805460018160011615610100020316600290048015610a1d5780601f106109f257610100808354040283529160200191610a1d565b820191906000526020600020905b815481529060010190602001808311610a0057829003601f168201915b5050505050610580565b5050505050565b828054828255906000526020600020908101928215610a6f5760005260206000209182015b82811115610a6e578254825591600101919060010190610a53565b5b509050610a7c9190610cdc565b5090565b828054600181600116156101000203166002900490600052602060002090601f016020900481019282601f10610ab95780548555610af6565b82800160010185558215610af657600052602060002091601f016020900482015b82811115610af5578254825591600101919060010190610ada565b5b509050610b039190610d1f565b5090565b5080546000825590600052602060002090810190610b259190610d1f565b50565b50805460018160011615610100020316600290046000825580601f10610b4e5750610b6d565b601f016020900490600052602060002090810190610b6c9190610d1f565b5b50565b60c060405190810160405280600067ffffffffffffffff168152602001600073ffffffffffffffffffffffffffffffffffffffff1681526020016060815260200160006002811115610bbe57fe5b815260200160008152602001606081525090565b828054828255906000526020600020908101928215610c4b579160200282015b82811115610c4a5782518260006101000a81548173ffffffffffffffffffffffffffffffffffffffff021916908373ffffffffffffffffffffffffffffffffffffffff16021790555091602001919060010190610bf2565b5b509050610c589190610cdc565b5090565b828054600181600116156101000203166002900490600052602060002090601f016020900481019282601f10610c9d57805160ff1916838001178555610ccb565b82800160010185558215610ccb579182015b82811115610cca578251825591602001919060010190610caf565b5b509050610cd89190610d1f565b5090565b610d1c91905b80821115610d1857600081816101000a81549073ffffffffffffffffffffffffffffffffffffffff021916905550600101610ce2565b5090565b90565b610d4191905b80821115610d3d576000816000905550600101610d25565b5090565b905600a165627a7a72305820ff4f3c0da856c53b3fe055947019358cbb423cf4d50324defabaae5ff1e194050029",
  "source": "pragma solidity ^0.4.24;\n\n\ncontract AccessControl {\n\n    address internal ownerDapp;\n\n    modifier onlyOwnerDapp() {\n        require(msg.sender == ownerDapp);\n        _;\n    }\n\n    \n\n    constructor() public {\n        ownerDapp = msg.sender;\n    }\n\n    function setOwner(address _addr) public onlyOwnerDapp {\n        ownerDapp = _addr;\n    }\n}\n\n\ncontract User {\n\n    struct UserInfo {\n        uint64 id;\n\n        /// more info\n        //...\n    }\n\n    mapping (address => UserInfo) addressToUserInfo;\n\n    uint64 public userTotal;\n\n    //modifiers\n    modifier onlyUser() {\n        require(addressToUserInfo[msg.sender].id != 0x0);\n        _;\n    }\n}\n\n\n\ncontract PlotBase is AccessControl, User {\n\n    enum StatePlot { UNFINISHED, READY, PROCESSING }\n\n\n    struct Plot {\n        uint64 id;\n        address owner;\n        address[] oldOwner;\n\n        StatePlot state;\n\n        // more info for the plot\n        // .......\n        uint area;\n        string pos;\n\n    }\n\n    //storage\n\n    //from plot Id to owner's address \n    mapping (uint => address) idPlotToOwner;\n\n    //Plot number of owner\n    mapping (address => uint) countPlotOwner;\n\n\n    //Plot Total\n    uint64 internal plotTotal;\n    Plot[] internal plots;\n    Plot[] internal plotsUnfinish;\n\n\n\n    //modifier\n    modifier onlyOwner(uint id) {\n        require(msg.sender == idPlotToOwner[id]);\n        _;\n    }\n\n    \n\n    //methods\n\n    /// User want create a plot infors of the plot \n    function createPlot(uint _area, string memory _pos) public returns(uint) {\n        //Info valid???\n        //require()???\n\n\n        //Get info to a object\n        uint64 _id = plotTotal;\n\n        //TODO:demo: StatePlot.UNFINISHED\n        Plot memory _plot = Plot(_id ,msg.sender, new address[](0), StatePlot.READY, _area, _pos);\n        plotTotal++;\n\n        //TODO:demo\n        plots.push(_plot);\n\n        //store to plot array\n        // plotsUnfinish.push(_plot);\n\n        //Increase owner\n        countPlotOwner[msg.sender]++;\n\n        //set owner\n        idPlotToOwner[_id] = msg.sender;\n\n\n        return (_id);\n    }\n\n\n\n\n    /// Just owner-dapp can approve a plot UNFINISHED\n    function approvalPlot(uint _id) external onlyOwnerDapp returns(uint) {\n        require(plotsUnfinish[_id].id != 0x0);\n\n        //Get pointer to Plot obj\n        Plot storage _plot = plotsUnfinish[_id];\n\n        //Change state of plot\n        _plot.state = StatePlot.READY;\n\n        //Storage to plots array\n        plots.push(_plot);\n\n        delete plotsUnfinish[_id];\n    }\n\n\n    function addOldOwner(address _oldOwner, uint _plotId) internal onlyOwner(_plotId) {\n        //Get plot\n        Plot storage _plot = plots[_plotId];\n\n        //Add to array oldOwner\n        _plot.oldOwner.push(_oldOwner);\n    }\n\n\n    /// split in half the plot\n    function splitPlot(uint _id, uint _decreaseArea) external onlyOwner(_id) {\n        //TODO:ref to this plot\n        Plot storage _plot = plots[_id];\n\n        require(_decreaseArea < _plot.area, \"Can't split with this area\");\n        // assert(_decreaseArea < _plot.area);\n        //decrease 's' of this plot\n        _plot.area -= _decreaseArea;\n\n\n        //Crease a new plot\n        createPlot(_decreaseArea, _plot.pos);\n    }\n}\n\n\n// contract PlotTransfer is PlotBase {\n    \n// }\n\n\n\n// contract PlotOwnership is PlotBase {\ncontract TokenERC20 is PlotBase {\n    // mapping (uint => address) approveToken;\n\n    string public name;\n    string public symbol;\n    uint8 public decimals;\n\n    event Transfer(\n        address indexed from,\n        address indexed to,\n        uint256 value\n    );\n\n    event Approval(\n        address indexed owner,\n        address indexed spender,\n        uint256 value\n    );\n\n    // constructor() public {\n    //     name = \"Real Estate\";             // Set the name for display purposes\n    //     symbol = \"RE\";\n    //     decimals = 1;\n    // }\n\n\n    function totalSupply() external view returns (uint256) {\n        return plotTotal;\n    }\n\n    function balanceOf() external view returns (uint256) {\n        return countPlotOwner[msg.sender];\n    }\n\n    \n\n    function toString(address x) internal pure returns (string memory) {\n        bytes memory b = new bytes(20);\n        for (uint i = 0; i < 20; i++)\n            b[i] = byte(uint8(uint(x) / (2**(8*(19 - i)))));\n        return string(b);\n    }\n\n    function transfer(address to, uint256 value) external onlyOwner(value) returns (bool){\n        if(plots[value].state != StatePlot.READY) {\n            return false;\n        }\n        //transfer to new owner\n        Plot storage _plot = plots[value];\n        \n        //Change plot info \n        _plot.owner = to;\n\n        //add old owner\n        _plot.oldOwner.push(msg.sender);\n\n        //change count plot of 2 owner\n        countPlotOwner[msg.sender]--;\n        countPlotOwner[to]++;\n\n        return true;\n    }\n}",
  "sourcePath": "/home/can/Documents/dapp/truffle-project/contracts/RealEstate.sol",
  "compiler": {
    "name": "solc",
    "version": "0.4.24+commit.e67f0147.Emscripten.clang"
  },
  "schemaVersion": "2.0.1",
  "updatedAt": "2018-12-28T07:41:06.374Z"
}