{
  "contractName": "PlotBase",
  "abi": [
    {
      "constant": false,
      "inputs": [
        {
          "name": "_addr",
          "type": "address"
        }
      ],
      "name": "setOwner",
      "outputs": [],
      "payable": false,
      "stateMutability": "nonpayable",
      "type": "function"
    },
    {
      "constant": true,
      "inputs": [],
      "name": "userTotal",
      "outputs": [
        {
          "name": "",
          "type": "uint64"
        }
      ],
      "payable": false,
      "stateMutability": "view",
      "type": "function"
    },
    {
      "constant": false,
      "inputs": [],
      "name": "createPlot",
      "outputs": [
        {
          "name": "",
          "type": "uint256"
        }
      ],
      "payable": false,
      "stateMutability": "nonpayable",
      "type": "function"
    },
    {
      "constant": false,
      "inputs": [
        {
          "name": "_id",
          "type": "uint256"
        }
      ],
      "name": "approvalPlot",
      "outputs": [
        {
          "name": "",
          "type": "uint256"
        }
      ],
      "payable": false,
      "stateMutability": "nonpayable",
      "type": "function"
    }
  ],
  "bytecode": "0x6080604052336000806101000a81548173ffffffffffffffffffffffffffffffffffffffff021916908373ffffffffffffffffffffffffffffffffffffffff1602179055506108f1806100536000396000f300608060405260043610610062576000357c0100000000000000000000000000000000000000000000000000000000900463ffffffff16806313af4035146100675780632f82b20c146100aa578063b9cf3f70146100eb578063d07540d21461012a575b600080fd5b34801561007357600080fd5b506100a8600480360381019080803573ffffffffffffffffffffffffffffffffffffffff169060200190929190505050610155565b005b3480156100b657600080fd5b506100d5600480360381019080803590602001909291905050506101f3565b6040518082815260200191505060405180910390f35b3480156100f757600080fd5b50610100610498565b604051808267ffffffffffffffff1667ffffffffffffffff16815260200191505060405180910390f35b34801561013657600080fd5b5061013f6104b2565b6040518082815260200191505060405180910390f35b6000809054906101000a900473ffffffffffffffffffffffffffffffffffffffff1673ffffffffffffffffffffffffffffffffffffffff163373ffffffffffffffffffffffffffffffffffffffff161415156101b057600080fd5b806000806101000a81548173ffffffffffffffffffffffffffffffffffffffff021916908373ffffffffffffffffffffffffffffffffffffffff16021790555050565b6000806000809054906101000a900473ffffffffffffffffffffffffffffffffffffffff1673ffffffffffffffffffffffffffffffffffffffff163373ffffffffffffffffffffffffffffffffffffffff1614151561025157600080fd5b600060078481548110151561026257fe5b906000526020600020906003020160000160009054906101000a900467ffffffffffffffff1667ffffffffffffffff161415151561029f57600080fd5b6007838154811015156102ae57fe5b9060005260206000209060030201905060018160020160006101000a81548160ff021916908360028111156102df57fe5b0217905550600681908060018154018082558091505090600182039060005260206000209060030201600090919290919091506000820160009054906101000a900467ffffffffffffffff168160000160006101000a81548167ffffffffffffffff021916908367ffffffffffffffff1602179055506000820160089054906101000a900473ffffffffffffffffffffffffffffffffffffffff168160000160086101000a81548173ffffffffffffffffffffffffffffffffffffffff021916908373ffffffffffffffffffffffffffffffffffffffff16021790555060018201816001019080546103d292919061070c565b506002820160009054906101000a900460ff168160020160006101000a81548160ff0219169083600281111561040457fe5b021790555050505060078381548110151561041b57fe5b9060005260206000209060030201600080820160006101000a81549067ffffffffffffffff02191690556000820160086101000a81549073ffffffffffffffffffffffffffffffffffffffff021916905560018201600061047c919061075e565b6002820160006101000a81549060ff0219169055505050919050565b600260009054906101000a900467ffffffffffffffff1681565b6000806104bd61077f565b6000600160003373ffffffffffffffffffffffffffffffffffffffff1673ffffffffffffffffffffffffffffffffffffffff16815260200190815260200160002060000160009054906101000a900467ffffffffffffffff1667ffffffffffffffff161415151561052d57600080fd5b600560009054906101000a900467ffffffffffffffff1691506080604051908101604052808367ffffffffffffffff1681526020013373ffffffffffffffffffffffffffffffffffffffff16815260200160006040519080825280602002602001820160405280156105ae5781602001602082028038833980820191505090505b508152602001600060028111156105c157fe5b81525090506005600081819054906101000a900467ffffffffffffffff168092919060010191906101000a81548167ffffffffffffffff021916908367ffffffffffffffff160217905550506007819080600181540180825580915050906001820390600052602060002090600302016000909192909190915060008201518160000160006101000a81548167ffffffffffffffff021916908367ffffffffffffffff16021790555060208201518160000160086101000a81548173ffffffffffffffffffffffffffffffffffffffff021916908373ffffffffffffffffffffffffffffffffffffffff16021790555060408201518160010190805190602001906106cd9291906107d3565b5060608201518160020160006101000a81548160ff021916908360028111156106f257fe5b02179055505050508167ffffffffffffffff169250505090565b82805482825590600052602060002090810192821561074d5760005260206000209182015b8281111561074c578254825591600101919060010190610731565b5b50905061075a919061085d565b5090565b508054600082559060005260206000209081019061077c91906108a0565b50565b608060405190810160405280600067ffffffffffffffff168152602001600073ffffffffffffffffffffffffffffffffffffffff16815260200160608152602001600060028111156107cd57fe5b81525090565b82805482825590600052602060002090810192821561084c579160200282015b8281111561084b5782518260006101000a81548173ffffffffffffffffffffffffffffffffffffffff021916908373ffffffffffffffffffffffffffffffffffffffff160217905550916020019190600101906107f3565b5b509050610859919061085d565b5090565b61089d91905b8082111561089957600081816101000a81549073ffffffffffffffffffffffffffffffffffffffff021916905550600101610863565b5090565b90565b6108c291905b808211156108be5760008160009055506001016108a6565b5090565b905600a165627a7a7230582002a720521a2890d7fe154e197227a5d34354c8148944fbeca67f6948497467650029",
  "source": "pragma solidity ^0.4.24;\n\n\ncontract AccessControl {\n\n    address internal ownerDapp;\n\n    modifier onlyOwnerDapp() {\n        require(msg.sender == ownerDapp);\n        _;\n    }\n\n\n    constructor() public {\n        ownerDapp = msg.sender;\n    }\n\n    function setOwner(address _addr) public onlyOwnerDapp {\n        ownerDapp = _addr;\n    }\n}\n\n\ncontract User {\n\n    struct UserInfo {\n        uint64 id;\n\n        /// more info\n        //...\n    }\n\n    mapping (address => UserInfo) addressToUserInfo;\n\n    uint64 public userTotal;\n\n    //modifiers\n    modifier onlyUser() {\n        require(addressToUserInfo[msg.sender].id != 0x0);\n        _;\n    }\n}\n\n\n\ncontract PlotBase is AccessControl, User {\n\n    enum StatePlot { UNFINISHED, READY, PROCESSING }\n\n\n    struct Plot {\n        uint64 id;\n        address owner;\n        address[] oldOwner;\n\n        StatePlot state;\n\n        // more info for the plot\n        // .......\n\n    }\n\n    //storage\n\n    //from plot Id to owner's address \n    mapping (uint => address) idPlotToOwner;\n\n    //Plot number of owner\n    mapping (address => uint) countPlotOwner;\n\n\n    //Plot Total\n    uint64 internal plotTotal;\n    Plot[] internal plots;\n    Plot[] internal plotsUnfinish;\n\n\n\n    //modifier\n    modifier onlyOwner(uint id) {\n        require(msg.sender == idPlotToOwner[id]);\n        _;\n    }\n\n    \n\n    //methods\n\n    /// User want create a plot infors of the plot \n    function createPlot(/*  Info of the plot when user provide */) external onlyUser returns(uint) {\n        //Info valid???\n        //require()???\n\n\n        //Get info to a object\n        uint64 _id = plotTotal;\n\n        Plot memory _plot = Plot(_id ,msg.sender, new address[](0), StatePlot.UNFINISHED);\n        plotTotal++;\n        //store to plot array\n        plotsUnfinish.push(_plot);\n\n\n        return (_id);\n    }\n\n\n\n\n    /// Just owner-dapp can approve a plot UNFINISHED\n    function approvalPlot(uint _id) external onlyOwnerDapp returns(uint) {\n        require(plotsUnfinish[_id].id != 0x0);\n\n        //Get pointer to Plot obj\n        Plot storage _plot = plotsUnfinish[_id];\n\n        //Change state of plot\n        _plot.state = StatePlot.READY;\n\n        //Storage to plots array\n        plots.push(_plot);\n\n        delete plotsUnfinish[_id];\n    }\n\n\n    function addOldOwner(address _oldOwner, uint _plotId) internal onlyOwner(_plotId) {\n        //Get plot\n        Plot storage _plot = plots[_plotId];\n\n        //Add to array oldOwner\n        _plot.oldOwner.push(_oldOwner);\n    }\n\n\n    /// split in half the plot\n//     function splitPlot(uint _id) external onlyUser{\n        \n//     }\n}\n\n\n// contract PlotTransfer is PlotBase {\n    \n// }\n\n\n\ncontract PlotOwnership is PlotBase {\n\n    mapping (uint => address) approveToken;\n\n    event Transfer(\n        address indexed from,\n        address indexed to,\n        uint256 value\n    );\n\n    event Approval(\n        address indexed owner,\n        address indexed spender,\n        uint256 value\n    );\n\n\n    function totalSupply() external view returns (uint256) {\n        return plotTotal;\n    }\n\n    function balanceOf(address who) external view returns (uint256) {\n        return countPlotOwner[who];\n    }\n\n    \n\n\n    function toString(address x) internal pure returns (string memory) {\n        bytes memory b = new bytes(20);\n        for (uint i = 0; i < 20; i++)\n            b[i] = byte(uint8(uint(x) / (2**(8*(19 - i)))));\n        return string(b);\n    }\n\n    function transfer(address to, uint256 value) external onlyOwner(value) returns (bool){\n        require(plots[value].state == StatePlot.READY);\n        //transfer to new owner\n        Plot storage _plot = plots[value];\n        \n        //Change plot info \n        _plot.owner = to;\n\n        //add old owner\n        _plot.oldOwner.push(msg.sender);\n\n        //change count plot of 2 owner\n        countPlotOwner[msg.sender]--;\n        countPlotOwner[to]++;\n    }\n    \n\n    // function allowance(address owner, address spender) external view returns (uint256) {\n        \n    // }\n\n    //When a user want transfer a plot\n    // function approve(address spender, uint256 value) external onlyOwner(value) returns (bool) {\n    //     require(plots[value].state == StatePlot.READY);\n\n    //     approveToken[value] = spender;\n    // }\n\n    // function transferFrom(address from, address to, uint256 value) external onlyOwnerDapp returns (bool) {\n    //     require(plots[value].owner == from && approveToken[value] == to);\n\n    // }\n}",
  "sourcePath": "/home/can/Documents/dapp/truffle-project/contracts/RealEstate.sol",
  "compiler": {
    "name": "solc",
    "version": "0.4.24+commit.e67f0147.Emscripten.clang"
  },
  "schemaVersion": "2.0.1",
  "updatedAt": "2018-12-25T09:08:05.605Z"
}