{
  "contractName": "PlotOwnership",
  "abi": [
    {
      "constant": false,
      "inputs": [
        {
          "name": "_addr",
          "type": "address"
        }
      ],
      "name": "setOwner",
      "outputs": [],
      "payable": false,
      "stateMutability": "nonpayable",
      "type": "function"
    },
    {
      "constant": false,
      "inputs": [
        {
          "name": "_id",
          "type": "uint256"
        }
      ],
      "name": "approvalPlot",
      "outputs": [
        {
          "name": "",
          "type": "uint256"
        }
      ],
      "payable": false,
      "stateMutability": "nonpayable",
      "type": "function"
    },
    {
      "constant": true,
      "inputs": [],
      "name": "userTotal",
      "outputs": [
        {
          "name": "",
          "type": "uint64"
        }
      ],
      "payable": false,
      "stateMutability": "view",
      "type": "function"
    },
    {
      "constant": false,
      "inputs": [],
      "name": "createPlot",
      "outputs": [
        {
          "name": "",
          "type": "uint256"
        }
      ],
      "payable": false,
      "stateMutability": "nonpayable",
      "type": "function"
    },
    {
      "anonymous": false,
      "inputs": [
        {
          "indexed": true,
          "name": "from",
          "type": "address"
        },
        {
          "indexed": true,
          "name": "to",
          "type": "address"
        },
        {
          "indexed": false,
          "name": "value",
          "type": "uint256"
        }
      ],
      "name": "Transfer",
      "type": "event"
    },
    {
      "anonymous": false,
      "inputs": [
        {
          "indexed": true,
          "name": "owner",
          "type": "address"
        },
        {
          "indexed": true,
          "name": "spender",
          "type": "address"
        },
        {
          "indexed": false,
          "name": "value",
          "type": "uint256"
        }
      ],
      "name": "Approval",
      "type": "event"
    },
    {
      "constant": true,
      "inputs": [],
      "name": "totalSupply",
      "outputs": [
        {
          "name": "",
          "type": "uint256"
        }
      ],
      "payable": false,
      "stateMutability": "view",
      "type": "function"
    },
    {
      "constant": true,
      "inputs": [
        {
          "name": "who",
          "type": "address"
        }
      ],
      "name": "balanceOf",
      "outputs": [
        {
          "name": "",
          "type": "uint256"
        }
      ],
      "payable": false,
      "stateMutability": "view",
      "type": "function"
    },
    {
      "constant": false,
      "inputs": [
        {
          "name": "to",
          "type": "address"
        },
        {
          "name": "value",
          "type": "uint256"
        }
      ],
      "name": "transfer",
      "outputs": [
        {
          "name": "",
          "type": "bool"
        }
      ],
      "payable": false,
      "stateMutability": "nonpayable",
      "type": "function"
    }
  ],
  "bytecode": "0x6080604052336000806101000a81548173ffffffffffffffffffffffffffffffffffffffff021916908373ffffffffffffffffffffffffffffffffffffffff160217905550610c9e806100536000396000f300608060405260043610610083576000357c0100000000000000000000000000000000000000000000000000000000900463ffffffff16806313af40351461008857806318160ddd146100cb5780632f82b20c146100f657806370a0823114610137578063a9059cbb1461018e578063b9cf3f70146101f3578063d07540d214610232575b600080fd5b34801561009457600080fd5b506100c9600480360381019080803573ffffffffffffffffffffffffffffffffffffffff16906020019092919050505061025d565b005b3480156100d757600080fd5b506100e06102fb565b6040518082815260200191505060405180910390f35b34801561010257600080fd5b5061012160048036038101908080359060200190929190505050610323565b6040518082815260200191505060405180910390f35b34801561014357600080fd5b50610178600480360381019080803573ffffffffffffffffffffffffffffffffffffffff1690602001909291905050506105c8565b6040518082815260200191505060405180910390f35b34801561019a57600080fd5b506101d9600480360381019080803573ffffffffffffffffffffffffffffffffffffffff16906020019092919080359060200190929190505050610611565b604051808215151515815260200191505060405180910390f35b3480156101ff57600080fd5b50610208610845565b604051808267ffffffffffffffff1667ffffffffffffffff16815260200191505060405180910390f35b34801561023e57600080fd5b5061024761085f565b6040518082815260200191505060405180910390f35b6000809054906101000a900473ffffffffffffffffffffffffffffffffffffffff1673ffffffffffffffffffffffffffffffffffffffff163373ffffffffffffffffffffffffffffffffffffffff161415156102b857600080fd5b806000806101000a81548173ffffffffffffffffffffffffffffffffffffffff021916908373ffffffffffffffffffffffffffffffffffffffff16021790555050565b6000600560009054906101000a900467ffffffffffffffff1667ffffffffffffffff16905090565b6000806000809054906101000a900473ffffffffffffffffffffffffffffffffffffffff1673ffffffffffffffffffffffffffffffffffffffff163373ffffffffffffffffffffffffffffffffffffffff1614151561038157600080fd5b600060078481548110151561039257fe5b906000526020600020906003020160000160009054906101000a900467ffffffffffffffff1667ffffffffffffffff16141515156103cf57600080fd5b6007838154811015156103de57fe5b9060005260206000209060030201905060018160020160006101000a81548160ff0219169083600281111561040f57fe5b0217905550600681908060018154018082558091505090600182039060005260206000209060030201600090919290919091506000820160009054906101000a900467ffffffffffffffff168160000160006101000a81548167ffffffffffffffff021916908367ffffffffffffffff1602179055506000820160089054906101000a900473ffffffffffffffffffffffffffffffffffffffff168160000160086101000a81548173ffffffffffffffffffffffffffffffffffffffff021916908373ffffffffffffffffffffffffffffffffffffffff1602179055506001820181600101908054610502929190610ab9565b506002820160009054906101000a900460ff168160020160006101000a81548160ff0219169083600281111561053457fe5b021790555050505060078381548110151561054b57fe5b9060005260206000209060030201600080820160006101000a81549067ffffffffffffffff02191690556000820160086101000a81549073ffffffffffffffffffffffffffffffffffffffff02191690556001820160006105ac9190610b0b565b6002820160006101000a81549060ff0219169055505050919050565b6000600460008373ffffffffffffffffffffffffffffffffffffffff1673ffffffffffffffffffffffffffffffffffffffff168152602001908152602001600020549050919050565b600080826003600082815260200190815260200160002060009054906101000a900473ffffffffffffffffffffffffffffffffffffffff1673ffffffffffffffffffffffffffffffffffffffff163373ffffffffffffffffffffffffffffffffffffffff1614151561068257600080fd5b6001600281111561068f57fe5b60068581548110151561069e57fe5b906000526020600020906003020160020160009054906101000a900460ff1660028111156106c857fe5b1415156106d457600080fd5b6006848154811015156106e357fe5b90600052602060002090600302019150848260000160086101000a81548173ffffffffffffffffffffffffffffffffffffffff021916908373ffffffffffffffffffffffffffffffffffffffff160217905550816001013390806001815401808255809150509060018203906000526020600020016000909192909190916101000a81548173ffffffffffffffffffffffffffffffffffffffff021916908373ffffffffffffffffffffffffffffffffffffffff16021790555050600460003373ffffffffffffffffffffffffffffffffffffffff1673ffffffffffffffffffffffffffffffffffffffff1681526020019081526020016000206000815480929190600190039190505550600460008673ffffffffffffffffffffffffffffffffffffffff1673ffffffffffffffffffffffffffffffffffffffff16815260200190815260200160002060008154809291906001019190505550505092915050565b600260009054906101000a900467ffffffffffffffff1681565b60008061086a610b2c565b6000600160003373ffffffffffffffffffffffffffffffffffffffff1673ffffffffffffffffffffffffffffffffffffffff16815260200190815260200160002060000160009054906101000a900467ffffffffffffffff1667ffffffffffffffff16141515156108da57600080fd5b600560009054906101000a900467ffffffffffffffff1691506080604051908101604052808367ffffffffffffffff1681526020013373ffffffffffffffffffffffffffffffffffffffff168152602001600060405190808252806020026020018201604052801561095b5781602001602082028038833980820191505090505b5081526020016000600281111561096e57fe5b81525090506005600081819054906101000a900467ffffffffffffffff168092919060010191906101000a81548167ffffffffffffffff021916908367ffffffffffffffff160217905550506007819080600181540180825580915050906001820390600052602060002090600302016000909192909190915060008201518160000160006101000a81548167ffffffffffffffff021916908367ffffffffffffffff16021790555060208201518160000160086101000a81548173ffffffffffffffffffffffffffffffffffffffff021916908373ffffffffffffffffffffffffffffffffffffffff1602179055506040820151816001019080519060200190610a7a929190610b80565b5060608201518160020160006101000a81548160ff02191690836002811115610a9f57fe5b02179055505050508167ffffffffffffffff169250505090565b828054828255906000526020600020908101928215610afa5760005260206000209182015b82811115610af9578254825591600101919060010190610ade565b5b509050610b079190610c0a565b5090565b5080546000825590600052602060002090810190610b299190610c4d565b50565b608060405190810160405280600067ffffffffffffffff168152602001600073ffffffffffffffffffffffffffffffffffffffff1681526020016060815260200160006002811115610b7a57fe5b81525090565b828054828255906000526020600020908101928215610bf9579160200282015b82811115610bf85782518260006101000a81548173ffffffffffffffffffffffffffffffffffffffff021916908373ffffffffffffffffffffffffffffffffffffffff16021790555091602001919060010190610ba0565b5b509050610c069190610c0a565b5090565b610c4a91905b80821115610c4657600081816101000a81549073ffffffffffffffffffffffffffffffffffffffff021916905550600101610c10565b5090565b90565b610c6f91905b80821115610c6b576000816000905550600101610c53565b5090565b905600a165627a7a72305820ddf305d5f9186399233eecef350ec6c119e3fbed21fdc4d45b15abb008e4fca00029",
  "source": "pragma solidity ^0.4.24;\n\n\ncontract AccessControl {\n\n    address internal ownerDapp;\n\n    modifier onlyOwnerDapp() {\n        require(msg.sender == ownerDapp);\n        _;\n    }\n\n\n    constructor() public {\n        ownerDapp = msg.sender;\n    }\n\n    function setOwner(address _addr) public onlyOwnerDapp {\n        ownerDapp = _addr;\n    }\n}\n\n\ncontract User {\n\n    struct UserInfo {\n        uint64 id;\n\n        /// more info\n        //...\n    }\n\n    mapping (address => UserInfo) addressToUserInfo;\n\n    uint64 public userTotal;\n\n    //modifiers\n    modifier onlyUser() {\n        require(addressToUserInfo[msg.sender].id != 0x0);\n        _;\n    }\n}\n\n\n\ncontract PlotBase is AccessControl, User {\n\n    enum StatePlot { UNFINISHED, READY, PROCESSING }\n\n\n    struct Plot {\n        uint64 id;\n        address owner;\n        address[] oldOwner;\n\n        StatePlot state;\n\n        // more info for the plot\n        // .......\n\n    }\n\n    //storage\n\n    //from plot Id to owner's address \n    mapping (uint => address) idPlotToOwner;\n\n    //Plot number of owner\n    mapping (address => uint) countPlotOwner;\n\n\n    //Plot Total\n    uint64 internal plotTotal;\n    Plot[] internal plots;\n    Plot[] internal plotsUnfinish;\n\n\n\n    //modifier\n    modifier onlyOwner(uint id) {\n        require(msg.sender == idPlotToOwner[id]);\n        _;\n    }\n\n    \n\n    //methods\n\n    /// User want create a plot infors of the plot \n    function createPlot(/*  Info of the plot when user provide */) external onlyUser returns(uint) {\n        //Info valid???\n        //require()???\n\n\n        //Get info to a object\n        uint64 _id = plotTotal;\n\n        Plot memory _plot = Plot(_id ,msg.sender, new address[](0), StatePlot.UNFINISHED);\n        plotTotal++;\n        //store to plot array\n        plotsUnfinish.push(_plot);\n\n\n        return (_id);\n    }\n\n\n\n\n    /// Just owner-dapp can approve a plot UNFINISHED\n    function approvalPlot(uint _id) external onlyOwnerDapp returns(uint) {\n        require(plotsUnfinish[_id].id != 0x0);\n\n        //Get pointer to Plot obj\n        Plot storage _plot = plotsUnfinish[_id];\n\n        //Change state of plot\n        _plot.state = StatePlot.READY;\n\n        //Storage to plots array\n        plots.push(_plot);\n\n        delete plotsUnfinish[_id];\n    }\n\n\n    function addOldOwner(address _oldOwner, uint _plotId) internal onlyOwner(_plotId) {\n        //Get plot\n        Plot storage _plot = plots[_plotId];\n\n        //Add to array oldOwner\n        _plot.oldOwner.push(_oldOwner);\n    }\n\n\n    /// split in half the plot\n//     function splitPlot(uint _id) external onlyUser{\n        \n//     }\n}\n\n\n// contract PlotTransfer is PlotBase {\n    \n// }\n\n\n\ncontract PlotOwnership is PlotBase {\n\n    mapping (uint => address) approveToken;\n\n    event Transfer(\n        address indexed from,\n        address indexed to,\n        uint256 value\n    );\n\n    event Approval(\n        address indexed owner,\n        address indexed spender,\n        uint256 value\n    );\n\n\n    function totalSupply() external view returns (uint256) {\n        return plotTotal;\n    }\n\n    function balanceOf(address who) external view returns (uint256) {\n        return countPlotOwner[who];\n    }\n\n    \n\n\n    function toString(address x) internal pure returns (string memory) {\n        bytes memory b = new bytes(20);\n        for (uint i = 0; i < 20; i++)\n            b[i] = byte(uint8(uint(x) / (2**(8*(19 - i)))));\n        return string(b);\n    }\n\n    function transfer(address to, uint256 value) external onlyOwner(value) returns (bool){\n        require(plots[value].state == StatePlot.READY);\n        //transfer to new owner\n        Plot storage _plot = plots[value];\n        \n        //Change plot info \n        _plot.owner = to;\n\n        //add old owner\n        _plot.oldOwner.push(msg.sender);\n\n        //change count plot of 2 owner\n        countPlotOwner[msg.sender]--;\n        countPlotOwner[to]++;\n    }\n    \n\n    // function allowance(address owner, address spender) external view returns (uint256) {\n        \n    // }\n\n    //When a user want transfer a plot\n    // function approve(address spender, uint256 value) external onlyOwner(value) returns (bool) {\n    //     require(plots[value].state == StatePlot.READY);\n\n    //     approveToken[value] = spender;\n    // }\n\n    // function transferFrom(address from, address to, uint256 value) external onlyOwnerDapp returns (bool) {\n    //     require(plots[value].owner == from && approveToken[value] == to);\n\n    // }\n}",
  "sourcePath": "/home/can/Documents/dapp/truffle-project/contracts/RealEstate.sol",
  "compiler": {
    "name": "solc",
    "version": "0.4.24+commit.e67f0147.Emscripten.clang"
  },
  "schemaVersion": "2.0.1",
  "updatedAt": "2018-12-25T09:08:05.607Z"
}