{
  "contractName": "TokenERC20",
  "abi": [
    {
      "constant": true,
      "inputs": [],
      "name": "name",
      "outputs": [
        {
          "name": "",
          "type": "string"
        }
      ],
      "payable": false,
      "stateMutability": "view",
      "type": "function"
    },
    {
      "constant": false,
      "inputs": [
        {
          "name": "_addr",
          "type": "address"
        }
      ],
      "name": "setOwner",
      "outputs": [],
      "payable": false,
      "stateMutability": "nonpayable",
      "type": "function"
    },
    {
      "constant": false,
      "inputs": [
        {
          "name": "_id",
          "type": "uint256"
        }
      ],
      "name": "approvalPlot",
      "outputs": [
        {
          "name": "",
          "type": "uint256"
        }
      ],
      "payable": false,
      "stateMutability": "nonpayable",
      "type": "function"
    },
    {
      "constant": true,
      "inputs": [],
      "name": "decimals",
      "outputs": [
        {
          "name": "",
          "type": "uint8"
        }
      ],
      "payable": false,
      "stateMutability": "view",
      "type": "function"
    },
    {
      "constant": false,
      "inputs": [
        {
          "name": "_area",
          "type": "uint256"
        },
        {
          "name": "_pos",
          "type": "string"
        }
      ],
      "name": "createPlot",
      "outputs": [
        {
          "name": "",
          "type": "uint256"
        }
      ],
      "payable": false,
      "stateMutability": "nonpayable",
      "type": "function"
    },
    {
      "constant": true,
      "inputs": [],
      "name": "symbol",
      "outputs": [
        {
          "name": "",
          "type": "string"
        }
      ],
      "payable": false,
      "stateMutability": "view",
      "type": "function"
    },
    {
      "constant": true,
      "inputs": [],
      "name": "userTotal",
      "outputs": [
        {
          "name": "",
          "type": "uint64"
        }
      ],
      "payable": false,
      "stateMutability": "view",
      "type": "function"
    },
    {
      "constant": false,
      "inputs": [
        {
          "name": "_id",
          "type": "uint256"
        },
        {
          "name": "_decreaseArea",
          "type": "uint256"
        }
      ],
      "name": "splitPlot",
      "outputs": [],
      "payable": false,
      "stateMutability": "nonpayable",
      "type": "function"
    },
    {
      "anonymous": false,
      "inputs": [
        {
          "indexed": true,
          "name": "from",
          "type": "address"
        },
        {
          "indexed": true,
          "name": "to",
          "type": "address"
        },
        {
          "indexed": false,
          "name": "value",
          "type": "uint256"
        }
      ],
      "name": "Transfer",
      "type": "event"
    },
    {
      "anonymous": false,
      "inputs": [
        {
          "indexed": true,
          "name": "owner",
          "type": "address"
        },
        {
          "indexed": true,
          "name": "spender",
          "type": "address"
        },
        {
          "indexed": false,
          "name": "value",
          "type": "uint256"
        }
      ],
      "name": "Approval",
      "type": "event"
    },
    {
      "constant": true,
      "inputs": [],
      "name": "totalSupply",
      "outputs": [
        {
          "name": "",
          "type": "uint256"
        }
      ],
      "payable": false,
      "stateMutability": "view",
      "type": "function"
    },
    {
      "constant": true,
      "inputs": [],
      "name": "balanceOf",
      "outputs": [
        {
          "name": "",
          "type": "uint256"
        }
      ],
      "payable": false,
      "stateMutability": "view",
      "type": "function"
    },
    {
      "constant": false,
      "inputs": [
        {
          "name": "to",
          "type": "address"
        },
        {
          "name": "value",
          "type": "uint256"
        }
      ],
      "name": "transfer",
      "outputs": [
        {
          "name": "",
          "type": "bool"
        }
      ],
      "payable": false,
      "stateMutability": "nonpayable",
      "type": "function"
    }
  ],
  "bytecode": "0x6080604052336000806101000a81548173ffffffffffffffffffffffffffffffffffffffff021916908373ffffffffffffffffffffffffffffffffffffffff1602179055506113b9806100536000396000f3006080604052600436106100af576000357c0100000000000000000000000000000000000000000000000000000000900463ffffffff16806306fdde03146100b457806313af40351461014457806318160ddd146101875780632f82b20c146101b2578063313ce567146101f35780634a404f9614610224578063722713f7146102ab57806395d89b41146102d6578063a9059cbb14610366578063b9cf3f70146103cb578063e936848f1461040a575b600080fd5b3480156100c057600080fd5b506100c9610441565b6040518080602001828103825283818151815260200191508051906020019080838360005b838110156101095780820151818401526020810190506100ee565b50505050905090810190601f1680156101365780820380516001836020036101000a031916815260200191505b509250505060405180910390f35b34801561015057600080fd5b50610185600480360381019080803573ffffffffffffffffffffffffffffffffffffffff1690602001909291905050506104df565b005b34801561019357600080fd5b5061019c61057d565b6040518082815260200191505060405180910390f35b3480156101be57600080fd5b506101dd600480360381019080803590602001909291905050506105a5565b6040518082815260200191505060405180910390f35b3480156101ff57600080fd5b50610208610894565b604051808260ff1660ff16815260200191505060405180910390f35b34801561023057600080fd5b5061029560048036038101908080359060200190929190803590602001908201803590602001908080601f01602080910402602001604051908101604052809392919081815260200183838082843782019150505050505091929192905050506108a7565b6040518082815260200191505060405180910390f35b3480156102b757600080fd5b506102c0610b72565b6040518082815260200191505060405180910390f35b3480156102e257600080fd5b506102eb610bb9565b6040518080602001828103825283818151815260200191508051906020019080838360005b8381101561032b578082015181840152602081019050610310565b50505050905090810190601f1680156103585780820380516001836020036101000a031916815260200191505b509250505060405180910390f35b34801561037257600080fd5b506103b1600480360381019080803573ffffffffffffffffffffffffffffffffffffffff16906020019092919080359060200190929190505050610c57565b604051808215151515815260200191505060405180910390f35b3480156103d757600080fd5b506103e0610e94565b604051808267ffffffffffffffff1667ffffffffffffffff16815260200191505060405180910390f35b34801561041657600080fd5b5061043f6004803603810190808035906020019092919080359060200190929190505050610eae565b005b60088054600181600116156101000203166002900480601f0160208091040260200160405190810160405280929190818152602001828054600181600116156101000203166002900480156104d75780601f106104ac576101008083540402835291602001916104d7565b820191906000526020600020905b8154815290600101906020018083116104ba57829003601f168201915b505050505081565b6000809054906101000a900473ffffffffffffffffffffffffffffffffffffffff1673ffffffffffffffffffffffffffffffffffffffff163373ffffffffffffffffffffffffffffffffffffffff1614151561053a57600080fd5b806000806101000a81548173ffffffffffffffffffffffffffffffffffffffff021916908373ffffffffffffffffffffffffffffffffffffffff16021790555050565b6000600560009054906101000a900467ffffffffffffffff1667ffffffffffffffff16905090565b6000806000809054906101000a900473ffffffffffffffffffffffffffffffffffffffff1673ffffffffffffffffffffffffffffffffffffffff163373ffffffffffffffffffffffffffffffffffffffff1614151561060357600080fd5b600060078481548110151561061457fe5b906000526020600020906005020160000160009054906101000a900467ffffffffffffffff1667ffffffffffffffff161415151561065157600080fd5b60078381548110151561066057fe5b9060005260206000209060050201905060018160020160006101000a81548160ff0219169083600281111561069157fe5b0217905550600681908060018154018082558091505090600182039060005260206000209060050201600090919290919091506000820160009054906101000a900467ffffffffffffffff168160000160006101000a81548167ffffffffffffffff021916908367ffffffffffffffff1602179055506000820160089054906101000a900473ffffffffffffffffffffffffffffffffffffffff168160000160086101000a81548173ffffffffffffffffffffffffffffffffffffffff021916908373ffffffffffffffffffffffffffffffffffffffff1602179055506001820181600101908054610784929190611077565b506002820160009054906101000a900460ff168160020160006101000a81548160ff021916908360028111156107b657fe5b021790555060038201548160030155600482018160040190805460018160011615610100020316600290046107ec9291906110c9565b505050506007838154811015156107ff57fe5b9060005260206000209060050201600080820160006101000a81549067ffffffffffffffff02191690556000820160086101000a81549073ffffffffffffffffffffffffffffffffffffffff02191690556001820160006108609190611150565b6002820160006101000a81549060ff0219169055600382016000905560048201600061088c9190611171565b505050919050565b600a60009054906101000a900460ff1681565b6000806108b26111b9565b600560009054906101000a900467ffffffffffffffff16915060c0604051908101604052808367ffffffffffffffff1681526020013373ffffffffffffffffffffffffffffffffffffffff16815260200160006040519080825280602002602001820160405280156109335781602001602082028038833980820191505090505b5081526020016001600281111561094657fe5b81526020018681526020018581525090506005600081819054906101000a900467ffffffffffffffff168092919060010191906101000a81548167ffffffffffffffff021916908367ffffffffffffffff160217905550506006819080600181540180825580915050906001820390600052602060002090600502016000909192909190915060008201518160000160006101000a81548167ffffffffffffffff021916908367ffffffffffffffff16021790555060208201518160000160086101000a81548173ffffffffffffffffffffffffffffffffffffffff021916908373ffffffffffffffffffffffffffffffffffffffff1602179055506040820151816001019080519060200190610a5e92919061121b565b5060608201518160020160006101000a81548160ff02191690836002811115610a8357fe5b02179055506080820151816003015560a0820151816004019080519060200190610aae9291906112a5565b50505050600460003373ffffffffffffffffffffffffffffffffffffffff1673ffffffffffffffffffffffffffffffffffffffff1681526020019081526020016000206000815480929190600101919050555033600360008467ffffffffffffffff16815260200190815260200160002060006101000a81548173ffffffffffffffffffffffffffffffffffffffff021916908373ffffffffffffffffffffffffffffffffffffffff1602179055508167ffffffffffffffff169250505092915050565b6000600460003373ffffffffffffffffffffffffffffffffffffffff1673ffffffffffffffffffffffffffffffffffffffff16815260200190815260200160002054905090565b60098054600181600116156101000203166002900480601f016020809104026020016040519081016040528092919081815260200182805460018160011615610100020316600290048015610c4f5780601f10610c2457610100808354040283529160200191610c4f565b820191906000526020600020905b815481529060010190602001808311610c3257829003601f168201915b505050505081565b600080826003600082815260200190815260200160002060009054906101000a900473ffffffffffffffffffffffffffffffffffffffff1673ffffffffffffffffffffffffffffffffffffffff163373ffffffffffffffffffffffffffffffffffffffff16141515610cc857600080fd5b60016002811115610cd557fe5b600685815481101515610ce457fe5b906000526020600020906005020160020160009054906101000a900460ff166002811115610d0e57fe5b141515610d1e5760009250610e8c565b600684815481101515610d2d57fe5b90600052602060002090600502019150848260000160086101000a81548173ffffffffffffffffffffffffffffffffffffffff021916908373ffffffffffffffffffffffffffffffffffffffff160217905550816001013390806001815401808255809150509060018203906000526020600020016000909192909190916101000a81548173ffffffffffffffffffffffffffffffffffffffff021916908373ffffffffffffffffffffffffffffffffffffffff16021790555050600460003373ffffffffffffffffffffffffffffffffffffffff1673ffffffffffffffffffffffffffffffffffffffff1681526020019081526020016000206000815480929190600190039190505550600460008673ffffffffffffffffffffffffffffffffffffffff1673ffffffffffffffffffffffffffffffffffffffff16815260200190815260200160002060008154809291906001019190505550600192505b505092915050565b600260009054906101000a900467ffffffffffffffff1681565b6000826003600082815260200190815260200160002060009054906101000a900473ffffffffffffffffffffffffffffffffffffffff1673ffffffffffffffffffffffffffffffffffffffff163373ffffffffffffffffffffffffffffffffffffffff16141515610f1e57600080fd5b600684815481101515610f2d57fe5b90600052602060002090600502019150816003015483101515610fb8576040517f08c379a000000000000000000000000000000000000000000000000000000000815260040180806020018281038252601a8152602001807f43616e27742073706c697420776974682074686973206172656100000000000081525060200191505060405180910390fd5b82826003016000828254039250508190555061107083836004018054600181600116156101000203166002900480601f0160208091040260200160405190810160405280929190818152602001828054600181600116156101000203166002900480156110665780601f1061103b57610100808354040283529160200191611066565b820191906000526020600020905b81548152906001019060200180831161104957829003601f168201915b50505050506108a7565b5050505050565b8280548282559060005260206000209081019282156110b85760005260206000209182015b828111156110b757825482559160010191906001019061109c565b5b5090506110c59190611325565b5090565b828054600181600116156101000203166002900490600052602060002090601f016020900481019282601f10611102578054855561113f565b8280016001018555821561113f57600052602060002091601f016020900482015b8281111561113e578254825591600101919060010190611123565b5b50905061114c9190611368565b5090565b508054600082559060005260206000209081019061116e9190611368565b50565b50805460018160011615610100020316600290046000825580601f1061119757506111b6565b601f0160209004906000526020600020908101906111b59190611368565b5b50565b60c060405190810160405280600067ffffffffffffffff168152602001600073ffffffffffffffffffffffffffffffffffffffff168152602001606081526020016000600281111561120757fe5b815260200160008152602001606081525090565b828054828255906000526020600020908101928215611294579160200282015b828111156112935782518260006101000a81548173ffffffffffffffffffffffffffffffffffffffff021916908373ffffffffffffffffffffffffffffffffffffffff1602179055509160200191906001019061123b565b5b5090506112a19190611325565b5090565b828054600181600116156101000203166002900490600052602060002090601f016020900481019282601f106112e657805160ff1916838001178555611314565b82800160010185558215611314579182015b828111156113135782518255916020019190600101906112f8565b5b5090506113219190611368565b5090565b61136591905b8082111561136157600081816101000a81549073ffffffffffffffffffffffffffffffffffffffff02191690555060010161132b565b5090565b90565b61138a91905b8082111561138657600081600090555060010161136e565b5090565b905600a165627a7a723058206de78ba1ba0ddd05ce57a53c1eeaa062ea373e51d83a5543d9750e4626bbe3690029",
  "source": "pragma solidity ^0.4.24;\n\n\ncontract AccessControl {\n\n    address internal ownerDapp;\n\n    modifier onlyOwnerDapp() {\n        require(msg.sender == ownerDapp);\n        _;\n    }\n\n    \n\n    constructor() public {\n        ownerDapp = msg.sender;\n    }\n\n    function setOwner(address _addr) public onlyOwnerDapp {\n        ownerDapp = _addr;\n    }\n}\n\n\ncontract User {\n\n    struct UserInfo {\n        uint64 id;\n\n        /// more info\n        //...\n    }\n\n    mapping (address => UserInfo) addressToUserInfo;\n\n    uint64 public userTotal;\n\n    //modifiers\n    modifier onlyUser() {\n        require(addressToUserInfo[msg.sender].id != 0x0);\n        _;\n    }\n}\n\n\n\ncontract PlotBase is AccessControl, User {\n\n    enum StatePlot { UNFINISHED, READY, PROCESSING }\n\n\n    struct Plot {\n        uint64 id;\n        address owner;\n        address[] oldOwner;\n\n        StatePlot state;\n\n        // more info for the plot\n        // .......\n        uint area;\n        string pos;\n\n    }\n\n    //storage\n\n    //from plot Id to owner's address \n    mapping (uint => address) idPlotToOwner;\n\n    //Plot number of owner\n    mapping (address => uint) countPlotOwner;\n\n\n    //Plot Total\n    uint64 internal plotTotal;\n    Plot[] internal plots;\n    Plot[] internal plotsUnfinish;\n\n\n\n    //modifier\n    modifier onlyOwner(uint id) {\n        require(msg.sender == idPlotToOwner[id]);\n        _;\n    }\n\n    \n\n    //methods\n\n    /// User want create a plot infors of the plot \n    function createPlot(uint _area, string memory _pos) public returns(uint) {\n        //Info valid???\n        //require()???\n\n\n        //Get info to a object\n        uint64 _id = plotTotal;\n\n        //TODO:demo: StatePlot.UNFINISHED\n        Plot memory _plot = Plot(_id ,msg.sender, new address[](0), StatePlot.READY, _area, _pos);\n        plotTotal++;\n\n        //TODO:demo\n        plots.push(_plot);\n\n        //store to plot array\n        // plotsUnfinish.push(_plot);\n\n        //Increase owner\n        countPlotOwner[msg.sender]++;\n\n        //set owner\n        idPlotToOwner[_id] = msg.sender;\n\n\n        return (_id);\n    }\n\n\n\n\n    /// Just owner-dapp can approve a plot UNFINISHED\n    function approvalPlot(uint _id) external onlyOwnerDapp returns(uint) {\n        require(plotsUnfinish[_id].id != 0x0);\n\n        //Get pointer to Plot obj\n        Plot storage _plot = plotsUnfinish[_id];\n\n        //Change state of plot\n        _plot.state = StatePlot.READY;\n\n        //Storage to plots array\n        plots.push(_plot);\n\n        delete plotsUnfinish[_id];\n    }\n\n\n    function addOldOwner(address _oldOwner, uint _plotId) internal onlyOwner(_plotId) {\n        //Get plot\n        Plot storage _plot = plots[_plotId];\n\n        //Add to array oldOwner\n        _plot.oldOwner.push(_oldOwner);\n    }\n\n\n    /// split in half the plot\n    function splitPlot(uint _id, uint _decreaseArea) external onlyOwner(_id) {\n        //TODO:ref to this plot\n        Plot storage _plot = plots[_id];\n\n        require(_decreaseArea < _plot.area, \"Can't split with this area\");\n        // assert(_decreaseArea < _plot.area);\n        //decrease 's' of this plot\n        _plot.area -= _decreaseArea;\n\n\n        //Crease a new plot\n        createPlot(_decreaseArea, _plot.pos);\n    }\n}\n\n\n// contract PlotTransfer is PlotBase {\n    \n// }\n\n\n\n// contract PlotOwnership is PlotBase {\ncontract TokenERC20 is PlotBase {\n    // mapping (uint => address) approveToken;\n\n    string public name;\n    string public symbol;\n    uint8 public decimals;\n\n    event Transfer(\n        address indexed from,\n        address indexed to,\n        uint256 value\n    );\n\n    event Approval(\n        address indexed owner,\n        address indexed spender,\n        uint256 value\n    );\n\n    // constructor() public {\n    //     name = \"Real Estate\";             // Set the name for display purposes\n    //     symbol = \"RE\";\n    //     decimals = 1;\n    // }\n\n\n    function totalSupply() external view returns (uint256) {\n        return plotTotal;\n    }\n\n    function balanceOf() external view returns (uint256) {\n        return countPlotOwner[msg.sender];\n    }\n\n    \n\n    function toString(address x) internal pure returns (string memory) {\n        bytes memory b = new bytes(20);\n        for (uint i = 0; i < 20; i++)\n            b[i] = byte(uint8(uint(x) / (2**(8*(19 - i)))));\n        return string(b);\n    }\n\n    function transfer(address to, uint256 value) external onlyOwner(value) returns (bool){\n        if(plots[value].state != StatePlot.READY) {\n            return false;\n        }\n        //transfer to new owner\n        Plot storage _plot = plots[value];\n        \n        //Change plot info \n        _plot.owner = to;\n\n        //add old owner\n        _plot.oldOwner.push(msg.sender);\n\n        //change count plot of 2 owner\n        countPlotOwner[msg.sender]--;\n        countPlotOwner[to]++;\n\n        return true;\n    }\n}",
  "sourcePath": "/home/can/Documents/dapp/truffle-project/contracts/RealEstate.sol",
  "compiler": {
    "name": "solc",
    "version": "0.4.24+commit.e67f0147.Emscripten.clang"
  },
  "schemaVersion": "2.0.1",
  "updatedAt": "2018-12-28T07:41:06.390Z"
}