{
  "contractName": "User",
  "abi": [
    {
      "constant": true,
      "inputs": [],
      "name": "userTotal",
      "outputs": [
        {
          "name": "",
          "type": "uint64"
        }
      ],
      "payable": false,
      "stateMutability": "view",
      "type": "function"
    }
  ],
  "bytecode": "0x608060405234801561001057600080fd5b5060c68061001f6000396000f300608060405260043610603f576000357c0100000000000000000000000000000000000000000000000000000000900463ffffffff168063b9cf3f70146044575b600080fd5b348015604f57600080fd5b5060566080565b604051808267ffffffffffffffff1667ffffffffffffffff16815260200191505060405180910390f35b600160009054906101000a900467ffffffffffffffff16815600a165627a7a72305820635860a21edb8086efddf897294b96ea18c37cce09dd131930ceea2372e1c8890029",
  "source": "pragma solidity ^0.4.24;\n\n\ncontract AccessControl {\n\n    address internal ownerDapp;\n\n    modifier onlyOwnerDapp() {\n        require(msg.sender == ownerDapp);\n        _;\n    }\n\n    \n\n    constructor() public {\n        ownerDapp = msg.sender;\n    }\n\n    function setOwner(address _addr) public onlyOwnerDapp {\n        ownerDapp = _addr;\n    }\n}\n\n\ncontract User {\n\n    struct UserInfo {\n        uint64 id;\n\n        /// more info\n        //...\n    }\n\n    mapping (address => UserInfo) addressToUserInfo;\n\n    uint64 public userTotal;\n\n    //modifiers\n    modifier onlyUser() {\n        require(addressToUserInfo[msg.sender].id != 0x0);\n        _;\n    }\n}\n\n\n\ncontract PlotBase is AccessControl, User {\n\n    enum StatePlot { UNFINISHED, READY, PROCESSING }\n\n\n    struct Plot {\n        uint64 id;\n        address owner;\n        address[] oldOwner;\n\n        StatePlot state;\n\n        // more info for the plot\n        // .......\n        uint area;\n        string pos;\n\n    }\n\n    //storage\n\n    //from plot Id to owner's address \n    mapping (uint => address) idPlotToOwner;\n\n    //Plot number of owner\n    mapping (address => uint) countPlotOwner;\n\n\n    //Plot Total\n    uint64 internal plotTotal;\n    Plot[] internal plots;\n    Plot[] internal plotsUnfinish;\n\n\n\n    //modifier\n    modifier onlyOwner(uint id) {\n        require(msg.sender == idPlotToOwner[id]);\n        _;\n    }\n\n    \n\n    //methods\n\n    /// User want create a plot infors of the plot \n    function createPlot(uint _area, string memory _pos) public returns(uint) {\n        //Info valid???\n        //require()???\n\n\n        //Get info to a object\n        uint64 _id = plotTotal;\n\n        //TODO:demo: StatePlot.UNFINISHED\n        Plot memory _plot = Plot(_id ,msg.sender, new address[](0), StatePlot.READY, _area, _pos);\n        plotTotal++;\n\n        //TODO:demo\n        plots.push(_plot);\n\n        //store to plot array\n        // plotsUnfinish.push(_plot);\n\n        //Increase owner\n        countPlotOwner[msg.sender]++;\n\n        //set owner\n        idPlotToOwner[_id] = msg.sender;\n\n\n        return (_id);\n    }\n\n\n\n\n    /// Just owner-dapp can approve a plot UNFINISHED\n    function approvalPlot(uint _id) external onlyOwnerDapp returns(uint) {\n        require(plotsUnfinish[_id].id != 0x0);\n\n        //Get pointer to Plot obj\n        Plot storage _plot = plotsUnfinish[_id];\n\n        //Change state of plot\n        _plot.state = StatePlot.READY;\n\n        //Storage to plots array\n        plots.push(_plot);\n\n        delete plotsUnfinish[_id];\n    }\n\n\n    function addOldOwner(address _oldOwner, uint _plotId) internal onlyOwner(_plotId) {\n        //Get plot\n        Plot storage _plot = plots[_plotId];\n\n        //Add to array oldOwner\n        _plot.oldOwner.push(_oldOwner);\n    }\n\n\n    /// split in half the plot\n    function splitPlot(uint _id, uint _decreaseArea) external onlyOwner(_id) {\n        //TODO:ref to this plot\n        Plot storage _plot = plots[_id];\n\n        require(_decreaseArea < _plot.area, \"Can't split with this area\");\n        // assert(_decreaseArea < _plot.area);\n        //decrease 's' of this plot\n        _plot.area -= _decreaseArea;\n\n\n        //Crease a new plot\n        createPlot(_decreaseArea, _plot.pos);\n    }\n}\n\n\n// contract PlotTransfer is PlotBase {\n    \n// }\n\n\n\n// contract PlotOwnership is PlotBase {\ncontract TokenERC20 is PlotBase {\n    // mapping (uint => address) approveToken;\n\n    string public name;\n    string public symbol;\n    uint8 public decimals;\n\n    event Transfer(\n        address indexed from,\n        address indexed to,\n        uint256 value\n    );\n\n    event Approval(\n        address indexed owner,\n        address indexed spender,\n        uint256 value\n    );\n\n    // constructor() public {\n    //     name = \"Real Estate\";             // Set the name for display purposes\n    //     symbol = \"RE\";\n    //     decimals = 1;\n    // }\n\n\n    function totalSupply() external view returns (uint256) {\n        return plotTotal;\n    }\n\n    function balanceOf() external view returns (uint256) {\n        return countPlotOwner[msg.sender];\n    }\n\n    \n\n    function toString(address x) internal pure returns (string memory) {\n        bytes memory b = new bytes(20);\n        for (uint i = 0; i < 20; i++)\n            b[i] = byte(uint8(uint(x) / (2**(8*(19 - i)))));\n        return string(b);\n    }\n\n    function transfer(address to, uint256 value) external onlyOwner(value) returns (bool){\n        if(plots[value].state != StatePlot.READY) {\n            return false;\n        }\n        //transfer to new owner\n        Plot storage _plot = plots[value];\n        \n        //Change plot info \n        _plot.owner = to;\n\n        //add old owner\n        _plot.oldOwner.push(msg.sender);\n\n        //change count plot of 2 owner\n        countPlotOwner[msg.sender]--;\n        countPlotOwner[to]++;\n\n        return true;\n    }\n}",
  "sourcePath": "/home/can/Documents/dapp/truffle-project/contracts/RealEstate.sol",
  "compiler": {
    "name": "solc",
    "version": "0.4.24+commit.e67f0147.Emscripten.clang"
  },
  "schemaVersion": "2.0.1",
  "updatedAt": "2018-12-28T07:41:06.379Z"
}